{
  "_format": "hh-sol-artifact-1",
  "contractName": "WebPaybackTokenV2",
  "sourceName": "contracts/WPTv2.sol",
  "abi": [
    {
      "inputs": [],
      "stateMutability": "nonpayable",
      "type": "constructor"
    },
    {
      "anonymous": false,
      "inputs": [
        {
          "indexed": true,
          "internalType": "address",
          "name": "owner",
          "type": "address"
        },
        {
          "indexed": true,
          "internalType": "address",
          "name": "spender",
          "type": "address"
        },
        {
          "indexed": false,
          "internalType": "uint256",
          "name": "value",
          "type": "uint256"
        }
      ],
      "name": "Approval",
      "type": "event"
    },
    {
      "anonymous": false,
      "inputs": [
        {
          "indexed": true,
          "internalType": "address",
          "name": "from",
          "type": "address"
        },
        {
          "indexed": false,
          "internalType": "uint256",
          "name": "feeAmount",
          "type": "uint256"
        }
      ],
      "name": "CreatorFeeCollected",
      "type": "event"
    },
    {
      "anonymous": false,
      "inputs": [
        {
          "indexed": true,
          "internalType": "address",
          "name": "from",
          "type": "address"
        },
        {
          "indexed": true,
          "internalType": "address",
          "name": "to",
          "type": "address"
        },
        {
          "indexed": false,
          "internalType": "uint256",
          "name": "value",
          "type": "uint256"
        }
      ],
      "name": "Transfer",
      "type": "event"
    },
    {
      "inputs": [
        {
          "internalType": "address",
          "name": "owner",
          "type": "address"
        },
        {
          "internalType": "address",
          "name": "spender",
          "type": "address"
        }
      ],
      "name": "allowance",
      "outputs": [
        {
          "internalType": "uint256",
          "name": "",
          "type": "uint256"
        }
      ],
      "stateMutability": "view",
      "type": "function"
    },
    {
      "inputs": [
        {
          "internalType": "address",
          "name": "spender",
          "type": "address"
        },
        {
          "internalType": "uint256",
          "name": "amount",
          "type": "uint256"
        }
      ],
      "name": "approve",
      "outputs": [
        {
          "internalType": "bool",
          "name": "",
          "type": "bool"
        }
      ],
      "stateMutability": "nonpayable",
      "type": "function"
    },
    {
      "inputs": [
        {
          "internalType": "address",
          "name": "account",
          "type": "address"
        }
      ],
      "name": "balanceOf",
      "outputs": [
        {
          "internalType": "uint256",
          "name": "",
          "type": "uint256"
        }
      ],
      "stateMutability": "view",
      "type": "function"
    },
    {
      "inputs": [
        {
          "internalType": "uint256",
          "name": "amount",
          "type": "uint256"
        }
      ],
      "name": "burn",
      "outputs": [],
      "stateMutability": "nonpayable",
      "type": "function"
    },
    {
      "inputs": [
        {
          "internalType": "uint256",
          "name": "amount",
          "type": "uint256"
        }
      ],
      "name": "calculateFee",
      "outputs": [
        {
          "internalType": "uint256",
          "name": "",
          "type": "uint256"
        }
      ],
      "stateMutability": "pure",
      "type": "function"
    },
    {
      "inputs": [],
      "name": "creatorFeeBasisPoints",
      "outputs": [
        {
          "internalType": "uint256",
          "name": "",
          "type": "uint256"
        }
      ],
      "stateMutability": "view",
      "type": "function"
    },
    {
      "inputs": [],
      "name": "creatorWallet",
      "outputs": [
        {
          "internalType": "address",
          "name": "",
          "type": "address"
        }
      ],
      "stateMutability": "view",
      "type": "function"
    },
    {
      "inputs": [],
      "name": "decimals",
      "outputs": [
        {
          "internalType": "uint8",
          "name": "",
          "type": "uint8"
        }
      ],
      "stateMutability": "view",
      "type": "function"
    },
    {
      "inputs": [
        {
          "internalType": "address",
          "name": "spender",
          "type": "address"
        },
        {
          "internalType": "uint256",
          "name": "subtractedValue",
          "type": "uint256"
        }
      ],
      "name": "decreaseAllowance",
      "outputs": [
        {
          "internalType": "bool",
          "name": "",
          "type": "bool"
        }
      ],
      "stateMutability": "nonpayable",
      "type": "function"
    },
    {
      "inputs": [],
      "name": "getCreatorFee",
      "outputs": [
        {
          "internalType": "uint256",
          "name": "",
          "type": "uint256"
        }
      ],
      "stateMutability": "pure",
      "type": "function"
    },
    {
      "inputs": [],
      "name": "getCreatorWallet",
      "outputs": [
        {
          "internalType": "address",
          "name": "",
          "type": "address"
        }
      ],
      "stateMutability": "pure",
      "type": "function"
    },
    {
      "inputs": [
        {
          "internalType": "address",
          "name": "spender",
          "type": "address"
        },
        {
          "internalType": "uint256",
          "name": "addedValue",
          "type": "uint256"
        }
      ],
      "name": "increaseAllowance",
      "outputs": [
        {
          "internalType": "bool",
          "name": "",
          "type": "bool"
        }
      ],
      "stateMutability": "nonpayable",
      "type": "function"
    },
    {
      "inputs": [
        {
          "internalType": "address",
          "name": "account",
          "type": "address"
        }
      ],
      "name": "isFeeFree",
      "outputs": [
        {
          "internalType": "bool",
          "name": "",
          "type": "bool"
        }
      ],
      "stateMutability": "pure",
      "type": "function"
    },
    {
      "inputs": [],
      "name": "name",
      "outputs": [
        {
          "internalType": "string",
          "name": "",
          "type": "string"
        }
      ],
      "stateMutability": "view",
      "type": "function"
    },
    {
      "inputs": [
        {
          "internalType": "uint256",
          "name": "grossAmount",
          "type": "uint256"
        }
      ],
      "name": "netTransferAmount",
      "outputs": [
        {
          "internalType": "uint256",
          "name": "",
          "type": "uint256"
        }
      ],
      "stateMutability": "pure",
      "type": "function"
    },
    {
      "inputs": [],
      "name": "symbol",
      "outputs": [
        {
          "internalType": "string",
          "name": "",
          "type": "string"
        }
      ],
      "stateMutability": "view",
      "type": "function"
    },
    {
      "inputs": [],
      "name": "totalSupply",
      "outputs": [
        {
          "internalType": "uint256",
          "name": "",
          "type": "uint256"
        }
      ],
      "stateMutability": "view",
      "type": "function"
    },
    {
      "inputs": [
        {
          "internalType": "address",
          "name": "to",
          "type": "address"
        },
        {
          "internalType": "uint256",
          "name": "amount",
          "type": "uint256"
        }
      ],
      "name": "transfer",
      "outputs": [
        {
          "internalType": "bool",
          "name": "",
          "type": "bool"
        }
      ],
      "stateMutability": "nonpayable",
      "type": "function"
    },
    {
      "inputs": [
        {
          "internalType": "address",
          "name": "from",
          "type": "address"
        },
        {
          "internalType": "address",
          "name": "to",
          "type": "address"
        },
        {
          "internalType": "uint256",
          "name": "amount",
          "type": "uint256"
        }
      ],
      "name": "transferFrom",
      "outputs": [
        {
          "internalType": "bool",
          "name": "",
          "type": "bool"
        }
      ],
      "stateMutability": "nonpayable",
      "type": "function"
    }
  ],
  "bytecode": "0x60806040523480156200001157600080fd5b506040518060400160405280601081526020016f2bb2b12830bcb130b1b5902a37b5b2b760811b8152506040518060400160405280600381526020016215d41560ea1b815250816003908162000068919062000249565b50600462000077828262000249565b505050620000b1336200008f620000b760201b60201c565b6200009c90600a6200042a565b620000ab906298968062000442565b620000bc565b62000472565b601290565b6001600160a01b038216620001175760405162461bcd60e51b815260206004820152601f60248201527f45524332303a206d696e7420746f20746865207a65726f206164647265737300604482015260640160405180910390fd5b80600260008282546200012b91906200045c565b90915550506001600160a01b038216600090815260208190526040812080548392906200015a9084906200045c565b90915550506040518181526001600160a01b038316906000907fddf252ad1be2c89b69c2b068fc378daa952ba7f163c4a11628f55a4df523b3ef9060200160405180910390a35050565b634e487b7160e01b600052604160045260246000fd5b600181811c90821680620001cf57607f821691505b602082108103620001f057634e487b7160e01b600052602260045260246000fd5b50919050565b601f8211156200024457600081815260208120601f850160051c810160208610156200021f5750805b601f850160051c820191505b8181101562000240578281556001016200022b565b5050505b505050565b81516001600160401b03811115620002655762000265620001a4565b6200027d81620002768454620001ba565b84620001f6565b602080601f831160018114620002b557600084156200029c5750858301515b600019600386901b1c1916600185901b17855562000240565b600085815260208120601f198616915b82811015620002e657888601518255948401946001909101908401620002c5565b5085821015620003055787850151600019600388901b60f8161c191681555b5050505050600190811b01905550565b634e487b7160e01b600052601160045260246000fd5b600181815b808511156200036c57816000190482111562000350576200035062000315565b808516156200035e57918102915b93841c939080029062000330565b509250929050565b600082620003855750600162000424565b81620003945750600062000424565b8160018114620003ad5760028114620003b857620003d8565b600191505062000424565b60ff841115620003cc57620003cc62000315565b50506001821b62000424565b5060208310610133831016604e8410600b8410161715620003fd575081810a62000424565b6200040983836200032b565b806000190482111562000420576200042062000315565b0290505b92915050565b60006200043b60ff84168362000374565b9392505050565b808202811582820484141762000424576200042462000315565b8082018082111562000424576200042462000315565b610c6080620004826000396000f3fe608060405234801561001057600080fd5b50600436106101215760003560e01c80635a5b0f56116100ad5780639e36eda6116100715780639e36eda61461026a578063a457c2d71461029a578063a9059cbb146102ad578063dd62ed3e146102c0578063eab506f2146102d357600080fd5b80635a5b0f561461020457806370a082311461020b5780637cdc65f21461023457806395d89b411461024f57806399a5d7471461025757600080fd5b806323b872dd116100f457806323b872dd1461018c578063296d19a81461019f578063313ce567146101cd57806339509351146101dc57806342966c68146101ef57600080fd5b806306fdde0314610126578063095ea7b31461014457806318160ddd14610167578063182c046614610179575b600080fd5b61012e6102db565b60405161013b9190610a44565b60405180910390f35b610157610152366004610aae565b61036d565b604051901515815260200161013b565b6002545b60405190815260200161013b565b61016b610187366004610ad8565b610387565b61015761019a366004610af1565b6103b5565b73ca5ea48c76c72cc37cfb75c452457d0e6d0508ba5b6040516001600160a01b03909116815260200161013b565b6040516012815260200161013b565b6101576101ea366004610aae565b6103d9565b6102026101fd366004610ad8565b6103fb565b005b600a61016b565b61016b610219366004610b2d565b6001600160a01b031660009081526020819052604090205490565b6101b573ca5ea48c76c72cc37cfb75c452457d0e6d0508ba81565b61012e610408565b61016b610265366004610ad8565b610417565b610157610278366004610b2d565b6001600160a01b031673ca5ea48c76c72cc37cfb75c452457d0e6d0508ba1490565b6101576102a8366004610aae565b610431565b6101576102bb366004610aae565b6104b1565b61016b6102ce366004610b48565b6104bf565b61016b600a81565b6060600380546102ea90610b7b565b80601f016020809104026020016040519081016040528092919081815260200182805461031690610b7b565b80156103635780601f1061033857610100808354040283529160200191610363565b820191906000526020600020905b81548152906001019060200180831161034657829003601f168201915b5050505050905090565b60003361037b8185856104ea565b60019150505b92915050565b600080612710610398600a85610bcb565b6103a29190610be2565b90506103ae8184610c04565b9392505050565b6000336103c385828561060f565b6103ce858585610689565b506001949350505050565b60003361037b8185856103ec83836104bf565b6103f69190610c17565b6104ea565b610405338261072f565b50565b6060600480546102ea90610b7b565b6000612710610427600a84610bcb565b6103819190610be2565b6000338161043f82866104bf565b9050838110156104a45760405162461bcd60e51b815260206004820152602560248201527f45524332303a2064656372656173656420616c6c6f77616e63652062656c6f77604482015264207a65726f60d81b60648201526084015b60405180910390fd5b6103ce82868684036104ea565b60003361037b818585610689565b6001600160a01b03918216600090815260016020908152604080832093909416825291909152205490565b6001600160a01b03831661054c5760405162461bcd60e51b8152602060048201526024808201527f45524332303a20617070726f76652066726f6d20746865207a65726f206164646044820152637265737360e01b606482015260840161049b565b6001600160a01b0382166105ad5760405162461bcd60e51b815260206004820152602260248201527f45524332303a20617070726f766520746f20746865207a65726f206164647265604482015261737360f01b606482015260840161049b565b6001600160a01b0383811660008181526001602090815260408083209487168084529482529182902085905590518481527f8c5be1e5ebec7d5bd14f71427d1e84f3dd0314c0f7b2291e5b200ac8c7c3b92591015b60405180910390a3505050565b600061061b84846104bf565b9050600019811461068357818110156106765760405162461bcd60e51b815260206004820152601d60248201527f45524332303a20696e73756666696369656e7420616c6c6f77616e6365000000604482015260640161049b565b61068384848484036104ea565b50505050565b6000612710610699600a84610bcb565b6106a39190610be2565b90506000811180156106b3575060015b1561071b576106d78473ca5ea48c76c72cc37cfb75c452457d0e6d0508ba83610875565b836001600160a01b03167ff058e30a37163332ea217a15e405ab8b7fb43880a572cfb5d10077b63d5563958260405161071291815260200190565b60405180910390a25b610683848461072a8486610c04565b610875565b6001600160a01b03821661078f5760405162461bcd60e51b815260206004820152602160248201527f45524332303a206275726e2066726f6d20746865207a65726f206164647265736044820152607360f81b606482015260840161049b565b6001600160a01b038216600090815260208190526040902054818110156108035760405162461bcd60e51b815260206004820152602260248201527f45524332303a206275726e20616d6f756e7420657863656564732062616c616e604482015261636560f01b606482015260840161049b565b6001600160a01b0383166000908152602081905260408120838303905560028054849290610832908490610c04565b90915550506040518281526000906001600160a01b038516907fddf252ad1be2c89b69c2b068fc378daa952ba7f163c4a11628f55a4df523b3ef90602001610602565b6001600160a01b0383166108d95760405162461bcd60e51b815260206004820152602560248201527f45524332303a207472616e736665722066726f6d20746865207a65726f206164604482015264647265737360d81b606482015260840161049b565b6001600160a01b03821661093b5760405162461bcd60e51b815260206004820152602360248201527f45524332303a207472616e7366657220746f20746865207a65726f206164647260448201526265737360e81b606482015260840161049b565b6001600160a01b038316600090815260208190526040902054818110156109b35760405162461bcd60e51b815260206004820152602660248201527f45524332303a207472616e7366657220616d6f756e7420657863656564732062604482015265616c616e636560d01b606482015260840161049b565b6001600160a01b038085166000908152602081905260408082208585039055918516815290812080548492906109ea908490610c17565b92505081905550826001600160a01b0316846001600160a01b03167fddf252ad1be2c89b69c2b068fc378daa952ba7f163c4a11628f55a4df523b3ef84604051610a3691815260200190565b60405180910390a350505050565b600060208083528351808285015260005b81811015610a7157858101830151858201604001528201610a55565b506000604082860101526040601f19601f8301168501019250505092915050565b80356001600160a01b0381168114610aa957600080fd5b919050565b60008060408385031215610ac157600080fd5b610aca83610a92565b946020939093013593505050565b600060208284031215610aea57600080fd5b5035919050565b600080600060608486031215610b0657600080fd5b610b0f84610a92565b9250610b1d60208501610a92565b9150604084013590509250925092565b600060208284031215610b3f57600080fd5b6103ae82610a92565b60008060408385031215610b5b57600080fd5b610b6483610a92565b9150610b7260208401610a92565b90509250929050565b600181811c90821680610b8f57607f821691505b602082108103610baf57634e487b7160e01b600052602260045260246000fd5b50919050565b634e487b7160e01b600052601160045260246000fd5b808202811582820484141761038157610381610bb5565b600082610bff57634e487b7160e01b600052601260045260246000fd5b500490565b8181038181111561038157610381610bb5565b8082018082111561038157610381610bb556fea26469706673582212203d1b24a8b02ab021e1dc3be2c26038092290b9f9e84c723385164e54a3d2c8d264736f6c63430008130033",
  "linkReferences": {},
  "deployedLinkReferences": {}
}